:020000040800F2
:10000000005000207F0500087905000879050008E8
:10001000790500087905000879050008000000004E
:10002000000000000000000000000000790500084A
:1000300000000000000000007905000879050008B4
:100040007905000879050008790500087905000898
:100050007905000879050008790500087905000888
:100060007905000879050008790500087905000878
:100070007905000879050008790500087905000868
:100080007905000879050008790500087905000858
:100090007905000879050008790500087905000848
:1000A0007905000879050008790500087905000838
:1000B0007905000879050008790500087905000828
:1000C0007905000879050008790500087905000818
:1000D0007905000879050008790500087905000808
:0C00E00079050008790500087905000882
:1000EC0080B483B000AF78607B68002B15D07B6840
:1000FC00DB000C4A013B53600A4B00229A60094B0F
:10010C0005221A6000BF074B1B6803F48033002BD9
:10011C00F9D0044B00221A6000E000BF0C37BD463A
:10012C0080BC704710E000E080B584B000AF786010
:10013C000023FB6006E04FF47A70FFF7D1FFFB68F9
:10014C000133FB60FA687B689A42F4D300BF00BFAE
:10015C001037BD4680BD00BF80B400AF134B9B6908
:10016C00124A43F401739361114B1B68104A23F03C
:10017C000F0313600E4B0E4A1B6813600D4B0022CD
:10018C009A600C4B5B6B0B4A23F00F035363094BC8
:10019C00084A5B6B5363074BDB68064A43F0060364
:1001AC00D36000BFBD4680BC704700BF001002404A
:1001BC00000801400024014080B487B000AFF86013
:1001CC00B9607A60324B5B69314A43F00103536189
:1001DC00304B00229A602F4B9B682E4A43F49C6351
:1001EC0093602C4AFB6813612A4ABB685361294A05
:1001FC007B68D360274B9B68264A43F001039360CE
:10020C00254B9B68244A43F00103936000237B61D8
:10021C0002E07B6901337B617B6942F20F7293428E
:10022C00F7DD1D4B9B681C4A43F00403936000BF31
:10023C00194B9B6803F00403002BF9D1164B9B68F8
:10024C00154A43F002039360134B9B68124A43F424
:10025C0080739360104B9B680F4A43F48013936038
:10026C000D4B9B680C4A23F4602393600A4B9B68EC
:10027C00094A43F400239360074B9B68064A43F0FA
:10028C000103936000BF1C37BD4680BC704700BFA4
:10029C0000100240000002400024014080B400AF76
:1002AC00104BDB690F4A43F00203D3610E4B47221C
:1002BC009A620D4B0922DA620B4B5B680A4A23F0F7
:1002CC0070035360084B5B68074A43F0200353608C
:1002DC00054B1B68044A43F00103136000BFBD4685
:1002EC0080BC7047001002400004004080B400AF96
:1002FC00114B9B69104A43F4804343F00403936110
:10030C000E4B5B680D4A23F47F6353600B4B5B68A9
:10031C000A4A43F40C635360094BDB68084A43F404
:10032C00005343F00C03D360054B40F271229A60EA
:10033C0000BFBD4680BC7047001002400008014061
:10034C000038014080B483B000AF0346FB7100BF9E
:10035C00064B1B6803F08003002BF9D0034AFB7992
:10036C00536000BF0C37BD4680BC7047003801405D
:10037C0080B400AF00BF064B1B6803F02003002BBA
:10038C00F9D0034B5B68DBB21846BD4680BC7047A6
:10039C000038014080B400AF1B4B9B691A4A43F0F4
:1003AC0008039361184BDB69174A43F40013D361BC
:1003BC00164B1B68154A23F07F431360134B1B68C5
:1003CC00124A43F07F431360114B1B68104A43F4ED
:1003DC00004313600E4B1B680D4A23F4004313605B
:1003EC000B4B24225A600A4BB422DA61084B2522AB
:1003FC001A62074B1B68064A43F00103136000BFE7
:10040C00BD4680BC704700BF00100240000C01408C
:10041C000054004080B483B000AF0346FB710B4620
:10042C00BB7113467B71204B1B681F4A43F48073CE
:10043C00136000BF1C4B5B6903F00103002BF9D068
:10044C00FB795B08DAB2184B1A6100BF164B5B697B
:10045C0003F00203002BF9D0134B9B6900BF124B26
:10046C005B6903F08003002BF9D00F4ABB79136151
:10047C0000BF0D4B5B6903F08003002BF9D00A4AD7
:10048C007B79136100BF084B5B6903F00403002BFD
:10049C00F9D0054B1B68044A43F40073136000BF8A
:1004AC000C37BD4680BC70470054004080B584B00A
:1004BC0000AF6420FFF738FE104A3B1D92E80300A2
:1004CC0018600433198002330A0C1A700023FB6085
:1004DC000BE03A1DFB6813441B781A4600213C20A4
:1004EC00FFF798FFFB680133FB60FB68062BF0D924
:1004FC0000BF00BF1037BD4680BD00BFC00600085E
:10050C0090B587B000AF00F061F8FFF725FE144BF3
:10051C004FF4806219461348FFF74EFEFFF7BEFEFC
:10052C00FFF738FFFFF7C2FF0F4B3C1D0FCB84E8E2
:10053C000F0000237B610BE03A1D7B6913441B7891
:10054C001A4640213C20FFF765FF7B6901337B6134
:10055C007B690F2BF0D94FF47A70FFF7E5FDE8E7D4
:10056C00000000204C240140C806000880B400AFF5
:10057C00FEE780B582B000AF0F4B7B600F4B3B604A
:10058C0007E07A68131D7B603B68191D396012689F
:10059C001A603B680A4A9342F3D30A4B3B6004E06F
:1005AC003B681A1D3A6000221A603B68064A934267
:1005BC00F6D3FFF7A5FFFEE7D806000800000020E1
:1005CC0000000020000000200008002080B400AFD4
:1005DC00364B1B68354A43F48033136000BF334BF2
:1005EC001B6803F40033002BF9D0314B1B68304AE5
:1005FC0043F0100313602E4B1B682D4A23F00703A6
:10060C0013602B4B1B682A4A43F002031360274BE1
:10061C005B68264A23F0F0035360244B5B68234A43
:10062C0023F4E0635360214B5B68204A43F48063FE
:10063C0053601E4B5B681D4A23F4605353601B4B85
:10064C005B681A4A43F480335360184B5B68174A53
:10065C0023F470135360154B5B68144A43F4E01396
:10066C005360124B1B68114A43F08073136000BF38
:10067C000E4B1B6803F00073002BF9D00B4B5B681F
:10068C000A4A23F003035360084B5B68074A43F0A4
:10069C000203536000BF054B5B6803F00C03082B8F
:1006AC00F9D100BF00BFBD4680BC704700100240AE
:0406BC0000200240D8
:1006C000AE20008D14AFA400FFFFFFFFFFFFFFFF70
:0806D000FFFFFFFFFFFFFFFF2A
:040000050800057F6B
:00000001FF
